S01B00004D756C746966756E6374696F6E616C5F4265642E7372656361
S11300000C942A000C9447000C9447000C9447006D
S11300100C9447000C9447000C9447000C94470040
S11300200C9447000C9447000C9447000C94470030
S11300300C9447000C9447000C9447000C94470020
S11300400C9447000C9447000C9447000C94470010
S11300500C94470011241FBECFE5D8E0DEBFCDBF0E
S113006011E0A0E6B0E0EAECF6E002C005900D92E3
S1130070A830B107D9F721E0A8E0B1E001C01D9292
S1130080AF30B207E1F70E9487010C9463030C942C
S1130090000094EA96BF06B607FEFDCF91B1987FA3
S11300A0983011F0903179F483B984E886BF06B6AC
S11300B007FEFDCF91B1987F983139F081E09034FB
S11300C029F480E0089581E0089580E0089584E9AA
S11300D086BF06B604FCFDCF089583B984E886BFC5
S11300E006B607FEFDCF91B1987F81E0983209F4FE
S11300F080E00895CF93DF93C82F8EE40E944900D7
S1130100DC2FD07F8091080184608D2B0E946D00CC
S113011089EF90E00197F1F700C000008091080199
S11301208D2B0E946D0089EF90E00197F1F700C0DC
S1130130000090E1C99FE0011124809108018460CE
S11301408C2B0E946D0089EF90E00197F1F700C0BD
S11301500000809108018C2B0E946D0089EF90E0D3
S11301600197F1F700C000000E946700DF91CF9172
S11301700895CF93C82F8EE40E944900C07F8091D8
S1130180080184608C2B0E946D0089EF90E0019738
S1130190F1F700C00000809108018C2B0E946D00D3
S11301A089EF90E00197F1F700C000000E9467001A
S11301B0CF9108958093080180E30E94B90080E301
S11301C00E94B90080E30E94B90080E20E94B90055
S11301D087E893E10197F1F700C0000088E20E94EC
S11301E07A008CE00E947A0086E00E947A0081E026
S11301F00E947A000895CF93DF93C82F8EE40E9463
S11302004900DC2FD07F80910801D82B8D2F856089
S11302100E946D00DA7F809108018D2B0E946D0091
S113022080E1C89F90011124C0910801C560C22BD0
S11302308C2F0E946D002C2F2A7F80910801822B25
S11302400E946D000E946700DF91CF910895623093
S113025031F0633031F0613029F4805C03C08C5E8E
S113026001C08C5A80680E947A00089581E00E943F
S11302707A0008951F93CF93DF930097B1F0EC01B8
S113028010E007C0FE01E20FF31F80810E94FB0013
S11302901F5F212F30E0FE0101900020E9F7319724
S11302A0EC1BFD0B2E173F0768F3DF91CF911F91D5
S11302B008958D9A95988FE99CE80197F1F700C00D
S11302C00000959A08958D988599FECF859BFECF61
S11302D08599FECF089588E090E0859BFECF20E5C8
S11302E02A95F1F7859B07C020910901220F21600F
S11302F02093090105C020910901220F20930901CF
S11303008599FECF019749F7809109010895CF930C
S1130310DF9300D000D01F92CDB7DEB7D0988FEF17
S113032087BBA69AA79A81B3807A81BB8F9A88E00B
S11303300E94DA000E94360160E082E00E942701F8
S113034080E690E00E943A0161E080E00E9427018B
S113035081E790E00E943A012FEF3DE349E4215008
S113036030404040E1F700C000000E94360160E0E8
S113037082E00E94270181E890E00E943A018FEF19
S113038091E12AE7815090402040E1F700C000004D
S11303900E9436013FEF49E688E1315040408040F9
S11303A0E1F700C0000084E990E00E943A019FEF69
S11303B023ED30E3915020403040E1F700C00000CD
S11303C00E9436014FEF89E698E141508040904009
S11303D0E1F700C0000060E080E00E942701C12C2A
S11303E0D12C0C2D1D2DEE24E394F12C82EA90E007
S11303F00E943A010E9459010E9463010E946B010C
S113040080930D010E946B0180930A010E946B018D
S113041080930C010E946B0180930E010E946B017A
S113042080930B01E0910C01F0E090910D0120917B
S11304300A0130E0290F311D2E0F3F1F90910E014C
S1130440290F311D90E02817390749F060E080E05A
S11304500E94270183EB90E00E943A01EAC04AE03F
S1130460BE016F5F7F4FCF010E942E0361E085E0E4
S11304700E942701CE0101960E943A0180EA90E091
S11304800E943A0180910E014AE0BE016F5F7F4FE6
S113049090E00E942E03CE0101960E943A0189EB5E
S11304A090E00E943A0180910C018E3198F060E056
S11304B080E00E9427018CEB90E00E943A01C198F1
S11304C02FEF39E648E1215030404040E1F700C0C9
S11304D000000AC0C19A8FEF99E628E1815090404C
S11304E02040E1F700C00000C89902C0809B0CC006
S11304F0C0983FEF41E18AE7315040408040E1F746
S113050000C00000C09A01C0C09A839B92C0869B21
S113051012C088E00E94DA000E94360160E082E0A6
S11305200E9427018AEC90E00E943A018E2D9F2DB3
S11305302E2D3F2D18C0849B12C088E00E94DA0043
S11305400E94360160E082E00E94270189ED90E07C
S11305500E943A018E2D9F2D2C2D3D2D04C08C2DF3
S11305609D2D2E2D3F2D2115310519F0AE98AF9AF2
S113057002C0AE9AAF98892B51F09FEF49EB8BEDF7
S1130580915040408040E1F700C0000009C09FEF57
S113059049E688E1915040408040E1F700C0000006
S11305A0869904C0802F912F849BDDCFAE9AAF9A99
S11305B0232B09F188E00E94DA000E94360160E0F2
S11305C082E00E94270189EE90E00E943A01C69AD7
S11305D0C59894E527E93FEB41E091502040304035
S11305E04040D9F700C000C00000C598C698819B60
S11305F020C0C79A1EC088E00E94DA000E9436011B
S113060060E082E00E94270188EF90E00E943A01B6
S1130610C798C698C59A84E597E92FEB31E08150D5
S1130620904020403040D9F700C000C00000C59879
S1130630C6984FEF89E698E1415080409040E1F739
S113064000C000000E9436012FEF39E648E1215036
S113065030404040E1F700C00000C8CEBB274A301C
S113066031F4992322F4BDE2909581959F4F0C9427
S11306703A03BB27FB015527AA27880F991FAA1FF6
S1130680A41710F0A41B83955051B9F7A05DAA33A9
S113069008F0A95DA193009779F7B111B193119274
S11306A0CB010C945303DC01FC01672F7191772378
S11306B0E1F7329704C07C916D9370836291AE1719
S10D06C0BF07C8F30895F894FFCFB4
S11306CA204D554C544946554E4354494F4E414C7E
S11306DA00202020203C3C3C20424544203E3E3E13
S11306EA002020202020202049542047524F5550D2
S11306FA20303100496E6974696174696E672E2EFF
S113070A2E007E2054656D70657261747572652061
S113071A7E20004572726F7200432000434F4F4C93
S113072A494E47204F4E20202000205441424C4538
S113073A20464F525741524400205441424C4520CE
S113074A4241434B5741524400205441424C4520B4
S113075A4C414D50204F4E00205441424C45204CB0
S10B076A414D50204F464600AA
S9030000FC
