:100000000C942A000C9447000C9447000C94470071
:100010000C9447000C9447000C9447000C94470044
:100020000C9447000C9447000C9447000C94470034
:100030000C9447000C9447000C9447000C94470024
:100040000C9447000C9447000C9447000C94470014
:100050000C94470011241FBECFE5D8E0DEBFCDBF12
:1000600011E0A0E6B0E0EAECF8E102C005900D92E4
:10007000A233B107D9F721E0A2E3B1E001C01D929C
:10008000A13BB207E1F70E9426060C94630C0C9486
:100090000000B099FECF28E180E090E0DC01C19A39
:1000A0000000880F991FAA1FBB1FC1980000B09BBA
:1000B00003C00196A11DB11D215089F7689415F860
:1000C000B695A795979587951694D1F7BC01CD0164
:1000D000805820913A01222349F020E0C19A000083
:1000E000C1982F5F30913A012317C0F30895CF9242
:1000F000DF92EF92FF920E9449000E943B086B0141
:100100007C016091320170913301809134019091B2
:1001100035010E943D089B01AC01C701B6010E9458
:100120005707FF90EF90DF90CF9008950E947700DF
:1001300020913601309137014091380150913901B9
:100140000E94C90708958038910521F481E08093C9
:100150003A0110C08034910521F483E080933A0184
:1001600009C0809721F482E080933A0103C081E0C6
:1001700080933A01C1980E9449000895CF92DF927E
:10018000EF92FF926B017C0120E030E040E85FE3FA
:100190000E94C407882344F40F2EC12CD12CF0E810
:1001A000EF2EFFE3FF2EF02DC0923601D0923701E3
:1001B000E0923801F0923901FF90EF90DF90CF90FC
:1001C00008958F929F92AF92BF92CF92DF92EF925B
:1001D000FF920F931F934A015B0168017901B99A5D
:1001E000C198B89890E00E94A300C501B4010E9494
:1001F000BE00C0923201D0923301E0923401F092FD
:1002000035011F910F91FF90EF90DF90CF90BF903D
:10021000AF909F908F90089511B880E280B90895B3
:1002200094EA96BF06B607FEFDCF91B1987F98304D
:1002300071F483B984E886BF06B607FEFDCF81B1AD
:10024000887F883131F0803231F083E0089580E09A
:10025000089581E0089582E0089594EA96BF06B675
:1002600007FEFDCF91B1987F903171F483B984E896
:1002700086BF06B607FEFDCF81B1887F803431F09E
:10028000803231F083E0089580E0089581E00895A0
:1002900082E0089584E986BF06B604FCFDCF089588
:1002A00083B984E886BF06B607FEFDCF81B1887F9B
:1002B000883221F0803321F082E0089580E00895B3
:1002C00081E0089584EC86BF06B607FEFDCF83B1BA
:1002D00090E0089584E886BF06B607FEFDCF83B19F
:1002E00090E00895672B09F09FC0009711F4D8980B
:1002F00008958130910511F4D998089582309105BF
:1003000011F4DA9808958330910511F4DB9808957B
:100310008430910511F4DC9808958530910511F42D
:10032000DD9808958630910511F4DE9808958730A0
:10033000910511F4DF9808958A30910511F4C09861
:1003400008958B30910511F4C19808958C30910572
:1003500011F4C29808958D30910511F4C398089551
:100360008E30910511F4C49808958F30910511F4E1
:10037000C59808958031910511F4C698089581318A
:10038000910511F4C79808958431910511F4A89846
:1003900008958531910511F4A99808958631910544
:1003A00011F4AA9808958731910511F4AB98089536
:1003B0008831910511F4AC9808958931910511F4B3
:1003C000AD9808958A31910511F4AE9808958B3156
:1003D000910511F4AF9808958E31910511F490981C
:1003E00008958F31910511F4919808958032910507
:1003F00011F4929808958132910511F4939808951B
:100400008232910511F4949808958332910511F484
:10041000959808958432910511F4969808958597DA
:1004200009F09FC097980895009711F4D89A0895FD
:100430008130910511F4D99A08958230910511F413
:10044000DA9A08958330910511F4DB9A0895843087
:10045000910511F4DC9A08958530910511F4DD9A27
:1004600008958630910511F4DE9A0895873091053C
:1004700011F4DF9A08958A30910511F4C09A089515
:100480008B30910511F4C19A08958C30910511F4C7
:10049000C29A08958D30910511F4C39A08958E3053
:1004A000910511F4C49A08958F30910511F4C59AFD
:1004B00008958031910511F4C69A0895813191050E
:1004C00011F4C79A08958431910511F4A89A0895FA
:1004D0008531910511F4A99A08958631910511F499
:1004E000AA9A08958731910511F4AB9A089588313D
:1004F000910511F4AC9A08958931910511F4AD9AE2
:1005000008958A31910511F4AE9A08958B319105C1
:1005100011F4AF9A08958E31910511F4909A0895CF
:100520008F31910511F4919A08958032910511F45B
:10053000929A08958132910511F4939A0895823226
:10054000910511F4949A08958332910511F4959AC6
:1005500008958432910511F4969A0895859709F4C7
:10056000979A0895CF93C82F80FF07C061E070E08D
:1005700082E290E00E94720106C060E070E082E2D8
:1005800090E00E947201C1FF07C061E070E083E269
:1005900090E00E94720106C060E070E083E290E0AB
:1005A0000E947201C2FF07C061E070E084E290E047
:1005B0000E94720106C060E070E084E290E00E9458
:1005C0007201C3FF07C061E070E085E290E00E9425
:1005D000720106C060E070E085E290E00E94720166
:1005E000CF910895CF93C82F60E070E08AE190E04A
:1005F0000E9472018C2F0E94B20261E070E08BE1D8
:1006000090E00E9472018FEC97E00197F1F700C033
:10061000000060E070E08BE190E00E9472018FECDE
:1006200097E00197F1F700C00000CF91089580E0B6
:100630000E94F20281E00E94F2020895CF93C62F39
:10064000813059F480E8860F82958F700E94F20203
:100650008C2F8F700E94F2020CC0823051F480EC1B
:10066000860F82958F700E94F2028C2F8F700E94ED
:10067000F202CF91089580E00E94B2028FE39CE9DC
:100680000197F1F700C0000083E00E94F2028FE0C2
:1006900097E20197F1F700C0000083E00E94F202A8
:1006A0008FEE95E50197F1F700C0000083E00E940E
:1006B000F20282E00E94F20282E00E94F20288E0EE
:1006C0000E94F20280E00E94F2028CE00E94F2029C
:1006D00080E00E94F20286E00E94F2020895CF9329
:1006E000C82F61E070E08AE190E00E9472018C2FD7
:1006F00082958F700E94B20261E070E08BE190E021
:100700000E9472018FEC97E00197F1F700C00000A2
:1007100060E070E08BE190E00E9472018FEC97E066
:100720000197F1F700C000008C2F8F700E94B20279
:1007300061E070E08BE190E00E9472018FEC97E045
:100740000197F1F700C0000060E070E08BE190E0FD
:100750000E9472018FEC97E00197F1F700C0000052
:10076000CF910895CF93DF93EC018881882331F0F6
:1007700021960E946F0389918111FBCFDF91CF9168
:10078000089530EF2FEF9FEE6FED5FEB4FE73ABB31
:100790002BBB8BB38F708BBB000089B38F708093A2
:1007A0003D018F30B1F7EFE3FCE93197F1F700C07D
:1007B000000089B38F7080933D018F30A1F3FFEF6C
:1007C00079EF80E0F15070408040E1F700C0000018
:1007D00089B38F7080933D018F3029F39BBB00005C
:1007E00089B38F7080933D018F3019F010924201D0
:1007F00024C06BBB000089B38F7080933D018F30A4
:1008000021F081E08093420118C05BBB000089B3F6
:100810008F7080933D018F3021F082E08093420100
:100820000CC04BBB000089B38F7080933D018F30AB
:1008300009F4ADCF83E08093420180913D018E3079
:1008400059F4E0914201F0E0EE0FFF1FEE0FFF1FA1
:10085000E759FF4F808108958D3059F4E0914201AE
:10086000F0E0EE0FFF1FEE0FFF1FE759FF4F8181F2
:1008700008958B3059F4E0914201F0E0EE0FFF1F34
:10088000EE0FFF1FE759FF4F82810895E09142016B
:10089000F0E0EE0FFF1FEE0FFF1FE759FF4F8381C0
:1008A0000895CF93C82F80ED0E9410018C2F0E94D5
:1008B000500181ED0E942D010E94620190933F0141
:1008C00080933E010E946201909341018093400118
:1008D0000E946A0190934401809343010E944A015F
:1008E000CF9108950E9449002AE049E451E00E9416
:1008F00016090E949600C7982FEF30E742E021507A
:1009000030404040E1F700C00000C79A2FE738E3CD
:1009100041E0215030404040E1F700C00000C7985E
:100920002FEF30E742E0215030404040E1F700C077
:100930000000C79A2FE738E341E0215030404040A3
:10094000E1F700C00000C7982FEF30E742E02150E8
:1009500030404040E1F700C00000C79A2FE738E37D
:1009600041E0215030404040E1F700C00000C7980E
:100970002FE738E341E0215030404040E1F700C02C
:100980000000C79A2FEF35EA4EE02150304040403A
:10099000E1F700C00000B49B08C0C79A81E090E076
:1009A00090933C0180933B01089520E030E040E4C7
:1009B00050E40E94C40718160CF494CFC79A81E043
:1009C00090E090933C0180933B0108950E941703AF
:1009D00060E081E00E941E0389E790E00E94B2037C
:1009E00060E082E00E941E030E94C10390ED980F18
:1009F0009A30D0F70E946F032FEF89E698E12150DB
:100A000080409040E1F700C0000008950F931F93CD
:100A1000CF93DF93CDB7DEB760970FB6F894DEBF04
:100A20000FBECDBF0E94170360E081E00E941E034D
:100A300089E890E00E94B20360E082E00E941E0319
:100A400000E010E00E94C10390ED980F9A3060F52D
:100A500002301105A4F060E082E00E941E0388E9E4
:100A600090E00E94B2032FEF89E698E12150804088
:100A70009040E1F700C000000E94060526C0E1E0BA
:100A8000F0E0EC0FFD1FE00FF11F80830F5F1F4FA1
:100A90000E946F032FEF89E698E12150804090403B
:100AA000E1F700C00000CECF96ED980F923018F01D
:100AB0008D7F8D3239F6CE0101960E94ED0890931C
:100AC0004801809347010E94E60460960FB6F894AF
:100AD000DEBF0FBECDBFDF91CF911F910F91089563
:100AE0000F931F93CF93DF93CDB7DEB760970FB609
:100AF000F894DEBF0FBECDBF10923C0110923B01B7
:100B00000E94170360E081E00E941E0382EA90E0E9
:100B10000E94B20360E082E00E941E0300E010E049
:100B20000E94C10390ED980F9A3060F502301105D4
:100B3000A4F060E082E00E941E0388E990E00E9439
:100B4000B2032FEF89E698E1215080409040E1F711
:100B500000C000000E94700526C0E1E0F0E0EC0F4C
:100B6000FD1FE00FF11F80830F5F1F4F0E946F0377
:100B70002FEF89E698E1215080409040E1F700C0D6
:100B80000000CECF96ED980F923018F08D7F8D3209
:100B900039F6CE0101960E94ED08909346018093AC
:100BA00045010E94060560960FB6F894DEBF0FBEA1
:100BB000CDBFDF91CF911F910F910895FC0101905E
:100BC0000020E9F73197E81BF90B9F01215031090B
:100BD000CAF1E80FF91FDC0160E070E041E050E08D
:100BE000229190ED920F9A3098F430E02053310921
:100BF000249FC001259F900D349F900D1124680FF4
:100C0000791F42955295507F5427407F542716C034
:100C10008FEB820F863090F430E027533109249F08
:100C2000C001259F900D349F900D1124680F791FEE
:100C300042955295507F5427407F5427EA17FB076F
:100C400079F602C060E070E0CB010895CF93DF93A6
:100C5000CDB7DEB7CC5CD1090FB6F894DEBF0FBEBE
:100C6000CDBF8FEF81BB84BB87BBC79A78940F2E13
:100C7000FEEF6F2EF0E07F2EF02D4E0125E1820E6B
:100C8000911CCE0101966C01282E3D2C482C592C2C
:100C90000E943B030E940C010E94170360E081E068
:100CA0000E941E0387EC90E00E94B20360E082E0A5
:100CB0000E941E0384ED90E00E94B2039FEF2DE39B
:100CC00039E4915020403040E1F700C000000E941C
:100CD000170360E081E00E941E0384EE90E00E9412
:100CE000B20360E082E00E941E0381EF90E00E9468
:100CF000B2038FEF97EA21E6815090402040E1F760
:100D000000C000000E9417030E9470054AE0BE0167
:100D100063557F4F80914501909146010E940B09D8
:100D20004AE0BE0163547F4F809147019091480192
:100D30000E940B09CE0183559F4F0E94DE057C0166
:100D4000CE0183549F4F0E94DE055C0180914801D3
:100D50008F93809147018F93809146018F9380916B
:100D600045018F937F926F929F928F920E946909A3
:100D70000E941703009164001091650020916600A5
:100D80003091670040916000509161006091620075
:100D900070916300809168000E94E1000FB6F894A2
:100DA000DEBF0FBECDBF0EEA10E080E00E9451040E
:100DB0000E9449002AE0AE01475D5F4F0E9416097C
:100DC0004AE0BE0163567F4F8091430190914401F8
:100DD0000E940B094AE0BE0163577F4F809140019A
:100DE000909141010E940B09809141018F93809164
:100DF00040018F9380914301909144018F71992715
:100E00009F938F931F930F93DF92CF920E94690954
:100E10000E94170360E081E00E941E03822D932D43
:100E20000E94B20360E082E00E941E03842D952D93
:100E30000E94B2030E949600BC9880914301909159
:100E400044018F7199270FB6F894DEBF0FBECDBF56
:100E5000E816F90611F58091400190914101A8161C
:100E6000B906D9F480913B0190913C01892BA9F4FA
:100E70000E94170360E081E00E941E0380E191E080
:100E80000E94B20360E082E00E941E0380E291E0D3
:100E90000E94B2030E947204FBCE3FEF84E39CE009
:100EA000315080409040E1F700C000007ECF5058A4
:100EB000BB27AA270E946F070C94B3080E94A508BD
:100EC00038F00E94AC0820F039F49F3F19F426F462
:100ED0000C94A2080EF4E095E7FB0C949C08E92F13
:100EE0000E94C40858F3BA1762077307840795076E
:100EF00020F079F4A6F50C94E6080EF4E0950B2E9C
:100F0000BA2FA02D0B01B90190010C01CA01A0015B
:100F10001124FF27591B99F0593F50F4503E68F1B6
:100F20001A16F040A22F232F342F4427585FF3CFF7
:100F3000469537952795A795F0405395C9F77EF4C8
:100F40001F16BA0B620B730B840BBAF09150A1F011
:100F5000FF0FBB1F661F771F881FC2F70EC0BA0F97
:100F6000621F731F841F48F4879577956795B7951F
:100F7000F7959E3F08F0B0CF9395880F08F099271A
:100F8000EE0F9795879508950E94780808F481E000
:100F900008950E94DD070C94B3080E94AC0858F035
:100FA0000E94A50840F029F45F3F29F00C949C08AA
:100FB00051110C94E7080C94A2080E94C40868F32D
:100FC0009923B1F3552391F3951B550BBB27AA2702
:100FD00062177307840738F09F5F5F4F220F331F3C
:100FE000441FAA1FA9F335D00E2E3AF0E0E832D004
:100FF00091505040E695001CCAF72BD0FE2F29D007
:10100000660F771F881FBB1F261737074807AB07D8
:10101000B0E809F0BB0B802DBF01FF2793585F4F4D
:101020003AF09E3F510578F00C949C080C94E70828
:101030005F3FE4F3983ED4F3869577956795B7952F
:10104000F7959F5FC9F7880F911D9695879597F93A
:101050000895E1E0660F771F881FBB1F62177307B3
:101060008407BA0720F0621B730B840BBA0BEE1FC8
:1010700088F7E0950895E89409C097FB3EF49095B1
:101080008095709561957F4F8F4F9F4F9923A9F061
:10109000F92F96E9BB279395F695879577956795F0
:1010A000B795F111F8CFFAF4BB0F11F460FF1BC034
:1010B0006F5F7F4F8F4F9F4F16C0882311F096E9C7
:1010C00011C0772321F09EE8872F762F05C0662375
:1010D00071F096E8862F70E060E02AF09A95660F2E
:1010E000771F881FDAF7880F9695879597F90895E7
:1010F000990F0008550FAA0BE0E8FEEF1616170629
:10110000E807F907C0F012161306E407F50798F090
:10111000621B730B840B950B39F40A2661F0232BA9
:10112000242B252B21F408950A2609F4A140A69525
:101130008FEF811D811D089597F99F6780E870E00A
:1011400060E008959FEF80EC089500240A9416163D
:10115000170618060906089500240A9412161306A5
:10116000140605060895092E0394000C11F4882333
:1011700052F0BB0F40F4BF2B11F460FF04C06F5F4F
:101180007F4F8F4F9F4F089557FD9058440F551F25
:1011900059F05F3F71F04795880F97FB991F61F0F9
:1011A0009F3F79F087950895121613061406551F70
:1011B000F2CF4695F1DF08C0161617061806991FDC
:1011C000F1CF86957105610508940895E894BB27D1
:1011D00066277727CB0197F90895FC01882799277F
:1011E000E89421912032E9F3293010F02E30C8F331
:1011F0002B3241F02D3239F4689404C00E94250945
:10120000820F911D219120532A30C0F31EF4909536
:1012100081959F4F0895BB274A3031F4992322F4DA
:10122000BDE2909581959F4F0C945009BB272A30C1
:1012300051F4992342F4BDE29095809570956195A3
:101240007F4F8F4F9F4F0C942E097AE0979F902DE0
:10125000879F802D910D11240895BB27FA01A62F99
:101260006217710581059105330B30FB66F0AA27E3
:10127000660F771F881F991FAA1FA21710F0A21BC5
:1012800063953850A9F7A05DAA3308F0A95DA19332
:1012900036F7B111B1931082CA010C94820BBB27AF
:1012A000FB015527AA27880F991FAA1FA41710F022
:1012B000A41B83955051B9F7A05DAA3308F0A95D2E
:1012C000A193009779F7B111B1931192CB010C94CE
:1012D000820BAEE0B0E0EFE6F9E00C943A0C0D8939
:1012E0001E8986E08C831A8309838FEF9FE79E8394
:1012F0008D83AE01475E5F4F6F89788DCE01019679
:101300000E948B09EF81F885E00FF11F10822E9665
:10131000E4E00C94560CABE0B0E0E1E9F9E00C94A9
:101320002C0C6C017B018A01FC01178216828381DF
:1013300081FFCCC1CE0101963C01F6019381F701FA
:1013400093FD859193FF81917F01882309F4BAC1B0
:10135000853239F493FD859193FF81917F01853228
:1013600029F4B60190E00E94920BE7CF912C212C3A
:10137000312CFFE1F315D8F08B3279F038F480325C
:1013800079F08332A1F4232D20611DC08D3261F0EC
:10139000803369F4232D216016C0832D8260382E9E
:1013A000E32DE4603E2E2AC0F32DF8601DC037FC0B
:1013B0002DC020ED280F2A3040F08E32B9F436FCD3
:1013C00081C1232D2064322E19C036FE06C08AE06A
:1013D000989E200D1124922E11C0EAE02E9E200D21
:1013E0001124222EF32DF0623F2E08C08C3621F4FA
:1013F000832D8068382E02C0883641F4F70193FDB2
:10140000859193FF81917F018111B3CF982F9F7DAB
:101410009554933028F40C5F1F4F9FE399830DC0C0
:10142000833631F0833771F0833509F059C021C01C
:10143000F801808189830E5F1F4F88248394912C4B
:10144000530113C02801F2E04F0E511CF801A08097
:10145000B18036FE03C0692D70E002C06FEF7FEFF0
:10146000C5010E94770B4C018201F32DFF773F2EBF
:1014700016C0280122E0420E511CF801A080B18064
:1014800036FE03C0692D70E002C06FEF7FEFC5012B
:101490000E946C0B4C01F32DF0683F2E820133FC4F
:1014A0001BC0822D90E088169906B0F4B60180E248
:1014B00090E00E94920B2A94F4CFF50137FC8591BD
:1014C00037FE81915F01B60190E00E94920B2110DE
:1014D0002A9421E0821A91088114910471F7E8C0DE
:1014E000843611F0893641F5F80137FE07C0608176
:1014F0007181828193810C5F1F4F08C0608171816F
:10150000072E000C880B990B0E5F1F4FF32DFF76F3
:101510003F2E97FF09C090958095709561957F4FFC
:101520008F4F9F4FF0683F2E2AE030E0A3010E94CA
:10153000CE0B882E861845C0853731F4232D2F7E9B
:10154000B22E2AE030E025C0932D997FB92E8F3638
:10155000C1F018F4883579F0B5C0803719F08837B4
:1015600021F0B0C0E92FE061BE2EB4FE0DC0FB2D0E
:10157000F460BF2E09C034FE0AC0292F2660B22EA7
:1015800006C028E030E005C020E130E002C020E1E4
:1015900032E0F801B7FE07C06081718182819381DA
:1015A0000C5F1F4F06C06081718180E090E00E5F8C
:1015B0001F4FA3010E94CE0B882E8618FB2DFF77AC
:1015C0003F2E36FE0DC0232D2E7FA22E891458F4F7
:1015D00034FE0BC032FC09C0832D8E7EA82E05C0C0
:1015E000B82CA32C03C0B82C01C0B92CA4FE0FC08A
:1015F000FE01E80DF11D8081803321F49A2D997E42
:10160000A92E09C0A2FE06C0B394B39404C08A2DCB
:10161000867809F0B394A3FC11C0A0FE06C0B214F2
:1016200088F4280C922C9B180EC0B21460F4B601FA
:1016300080E290E00E94920BB394F7CFB21418F4BA
:101640002B1802C0982C212CA4FE10C0B60180E3F8
:1016500090E00E94920BA2FE17C0A1FC03C088E795
:1016600090E002C088E590E0B6010CC08A2D867833
:1016700059F0A1FE02C08BE201C080E2A7FC8DE21E
:10168000B60190E00E94920B891438F4B60180E311
:1016900090E00E94920B9A94F7CF8A94F301E80DA0
:1016A000F11D8081B60190E00E94920B8110F5CF70
:1016B000222009F442CEB60180E290E00E94920B13
:1016C0002A94F6CFF6018681978102C08FEF9FEFB3
:1016D0002B96E2E10C94480CFC010590615070409F
:1016E0000110D8F7809590958E0F9F1F0895FC01EB
:1016F0006150704001900110D8F7809590958E0F41
:101700009F1F0895DC01FC01672F71917723E1F79A
:10171000329704C07C916D9370836291AE17BF07BE
:10172000C8F308950F931F93CF93DF93FB01238199
:1017300021FD03C08FEF9FEF2CC022FF16C0468112
:101740005781248135814217530744F4A081B18128
:101750009D012F5F3F4F318320838C9326813781FA
:101760002F5F3F4F3783268314C08B01EC01FB01B1
:101770000084F185E02D0995892BE1F6D8011696B4
:101780008D919C911797019617969C938E9316971F
:10179000CE01DF91CF911F910F910895FA01AA27F1
:1017A000283051F1203181F1E8946F936E7F6E5FA4
:1017B0007F4F8F4F9F4FAF4FB1E03ED0B4E03CD052
:1017C000670F781F891F9A1FA11D680F791F8A1F35
:1017D000911DA11D6A0F711D811D911DA11D20D09C
:1017E00009F468943F912AE0269F11243019305D56
:1017F0003193DEF6CF010895462F4770405D419347
:10180000B3E00FD0C9F7F6CF462F4F70405D4A3393
:1018100018F0495D31FD4052419302D0A9F7EACF5B
:10182000B4E0A6959795879577956795BA95C9F78A
:1018300000976105710508959B01AC010A2E06947D
:101840005795479537952795BA95C9F7620F731F36
:10185000841F951FA01D08952F923F924F925F9273
:101860006F927F928F929F92AF92BF92CF92DF92B0
:10187000EF92FF920F931F93CF93DF93CDB7DEB715
:10188000CA1BDB0B0FB6F894DEBF0FBECDBF0994A9
:101890002A88398848885F846E847D848C849B8400
:1018A000AA84B984C884DF80EE80FD800C811B810E
:1018B000AA81B981CE0FD11D0FB6F894DEBF0FBE3D
:0A18C000CDBFED010895F894FFCFAD
:1018CA00444B5244B90A8000802B3D302B2F3938C3
:1018DA00372A3635342D3332315052455353203757
:1018EA003E414D20383E504D0020456E74657220B1
:1018FA004D696E757465730020496E76616C696412
:10190A00200020456E74657220486F75720025307C
:10191A0032783A2530327800414C41524D203C3CD5
:10192A00505245535331002020202057454C434FF5
:10193A004D452000203C3C3C3C3C3C3C3E3E3E3E2F
:10194A003E3E3E002020202020484156452041208E
:10195A0000202020204E494345204441590020417F
:10196A006C61726D2020253032643A253032640071
:10197A00203C3C20414C41524D204F4E203E3E00DF
:10198A0054494D4520544F2057414B45205550212D
:02199A0000004B
:00000001FF
